:1000000000308A0004280000840183131F30830518
:1000100083161F149F141F159F118312A001FF3018
:10002000A1002111210883168700831207110C30CB
:1000300097007830F80006389200FF30831692005F
:100040001F109F101F119F1183121F179F178316D8
:100050009F1383121F140030F8001F08C73978045B
:100060009F000630F700F70B332800001F151F19FB
:1000700037281E08A2002208803C03184428831653
:1000800008108312081448288316081083120810D9
:040090002B286300B6
:02400E00723FFF
:00000001FF
;PIC16F877
;CRC=E1C9  CREATED="10-Ara-12 06:03"
